{"abi":[{"type":"constructor","inputs":[],"stateMutability":"nonpayable"},{"name":"Approval","type":"event","inputs":[{"name":"owner","type":"address","indexed":true,"internalType":"address"},{"name":"approved","type":"address","indexed":true,"internalType":"address"},{"name":"tokenId","type":"uint256","indexed":true,"internalType":"uint256"}],"anonymous":false},{"name":"ApprovalForAll","type":"event","inputs":[{"name":"owner","type":"address","indexed":true,"internalType":"address"},{"name":"operator","type":"address","indexed":true,"internalType":"address"},{"name":"approved","type":"bool","indexed":false,"internalType":"bool"}],"anonymous":false},{"name":"Transfer","type":"event","inputs":[{"name":"from","type":"address","indexed":true,"internalType":"address"},{"name":"to","type":"address","indexed":true,"internalType":"address"},{"name":"tokenId","type":"uint256","indexed":true,"internalType":"uint256"}],"anonymous":false},{"name":"approve","type":"function","inputs":[{"name":"to","type":"address","internalType":"address"},{"name":"tokenId","type":"uint256","internalType":"uint256"}],"outputs":[],"stateMutability":"nonpayable"},{"name":"balanceOf","type":"function","inputs":[{"name":"owner","type":"address","internalType":"address"}],"outputs":[{"name":"","type":"uint256","internalType":"uint256"}],"constant":true,"stateMutability":"view"},{"name":"baseURI","type":"function","inputs":[],"outputs":[{"name":"","type":"string","internalType":"string"}],"constant":true,"stateMutability":"view"},{"name":"getApproved","type":"function","inputs":[{"name":"tokenId","type":"uint256","internalType":"uint256"}],"outputs":[{"name":"","type":"address","internalType":"address"}],"constant":true,"stateMutability":"view"},{"name":"isApprovedForAll","type":"function","inputs":[{"name":"owner","type":"address","internalType":"address"},{"name":"operator","type":"address","internalType":"address"}],"outputs":[{"name":"","type":"bool","internalType":"bool"}],"constant":true,"stateMutability":"view"},{"name":"name","type":"function","inputs":[],"outputs":[{"name":"","type":"string","internalType":"string"}],"constant":true,"stateMutability":"view"},{"name":"ownerOf","type":"function","inputs":[{"name":"tokenId","type":"uint256","internalType":"uint256"}],"outputs":[{"name":"","type":"address","internalType":"address"}],"constant":true,"stateMutability":"view"},{"name":"safeTransferFrom","type":"function","inputs":[{"name":"from","type":"address","internalType":"address"},{"name":"to","type":"address","internalType":"address"},{"name":"tokenId","type":"uint256","internalType":"uint256"}],"outputs":[],"stateMutability":"nonpayable"},{"name":"safeTransferFrom","type":"function","inputs":[{"name":"from","type":"address","internalType":"address"},{"name":"to","type":"address","internalType":"address"},{"name":"tokenId","type":"uint256","internalType":"uint256"},{"name":"_data","type":"bytes","internalType":"bytes"}],"outputs":[],"stateMutability":"nonpayable"},{"name":"setApprovalForAll","type":"function","inputs":[{"name":"operator","type":"address","internalType":"address"},{"name":"approved","type":"bool","internalType":"bool"}],"outputs":[],"stateMutability":"nonpayable"},{"name":"supportsInterface","type":"function","inputs":[{"name":"interfaceId","type":"bytes4","internalType":"bytes4"}],"outputs":[{"name":"","type":"bool","internalType":"bool"}],"constant":true,"stateMutability":"view"},{"name":"symbol","type":"function","inputs":[],"outputs":[{"name":"","type":"string","internalType":"string"}],"constant":true,"stateMutability":"view"},{"name":"tokenByIndex","type":"function","inputs":[{"name":"index","type":"uint256","internalType":"uint256"}],"outputs":[{"name":"","type":"uint256","internalType":"uint256"}],"constant":true,"stateMutability":"view"},{"name":"tokenOfOwnerByIndex","type":"function","inputs":[{"name":"owner","type":"address","internalType":"address"},{"name":"index","type":"uint256","internalType":"uint256"}],"outputs":[{"name":"","type":"uint256","internalType":"uint256"}],"constant":true,"stateMutability":"view"},{"name":"tokenURI","type":"function","inputs":[{"name":"tokenId","type":"uint256","internalType":"uint256"}],"outputs":[{"name":"","type":"string","internalType":"string"}],"constant":true,"stateMutability":"view"},{"name":"totalSupply","type":"function","inputs":[],"outputs":[{"name":"","type":"uint256","internalType":"uint256"}],"constant":true,"stateMutability":"view"},{"name":"transferFrom","type":"function","inputs":[{"name":"from","type":"address","internalType":"address"},{"name":"to","type":"address","internalType":"address"},{"name":"tokenId","type":"uint256","internalType":"uint256"}],"outputs":[],"stateMutability":"nonpayable"},{"name":"awardBadge","type":"function","inputs":[{"name":"attendee","type":"address","internalType":"address"},{"name":"attendenceBadgeURI","type":"string","internalType":"string"}],"outputs":[{"name":"","type":"uint256","internalType":"uint256"}],"stateMutability":"nonpayable"},{"name":"awardBadgeOrig","type":"function","inputs":[],"outputs":[{"name":"","type":"uint256","internalType":"uint256"}],"stateMutability":"nonpayable"}],"devdoc":{"methods":{"name()":{"details":"See {IERC721Metadata-name}."},"symbol()":{"details":"See {IERC721Metadata-symbol}."},"baseURI()":{"details":"Returns the base URI set via {_setBaseURI}. This will be automatically added as a prefix in {tokenURI} to each token's URI, or to the token ID if no specific URI is set for that token ID."},"totalSupply()":{"details":"See {IERC721Enumerable-totalSupply}."},"ownerOf(uint256)":{"details":"See {IERC721-ownerOf}."},"tokenURI(uint256)":{"details":"See {IERC721Metadata-tokenURI}."},"balanceOf(address)":{"details":"See {IERC721-balanceOf}."},"getApproved(uint256)":{"details":"See {IERC721-getApproved}."},"tokenByIndex(uint256)":{"details":"See {IERC721Enumerable-tokenByIndex}."},"approve(address,uint256)":{"details":"See {IERC721-approve}."},"supportsInterface(bytes4)":{"details":"See {IERC165-supportsInterface}.     * Time complexity O(1), guaranteed to always use less than 30 000 gas."},"awardBadge(address,string)":{"params":{"attendee":"Attendee account address to whom the badge is to be awarded","attendenceBadgeURI":"Uri to the badge metadata (https://ipfs.infura-ipfs.io/ipfs/QmP6AFJbppxmebAgsQJ6mNeBKe22VZGhMzBsSU143XfmiB/meta1.json)"},"details":"What's with that hardcoded id tho?","returns":{"_0":"Autoincremented badge identifier via the counter utility"}},"setApprovalForAll(address,bool)":{"details":"See {IERC721-setApprovalForAll}."},"isApprovedForAll(address,address)":{"details":"See {IERC721-isApprovedForAll}."},"tokenOfOwnerByIndex(address,uint256)":{"details":"See {IERC721Enumerable-tokenOfOwnerByIndex}."},"transferFrom(address,address,uint256)":{"details":"See {IERC721-transferFrom}."},"safeTransferFrom(address,address,uint256)":{"details":"See {IERC721-safeTransferFrom}."},"safeTransferFrom(address,address,uint256,bytes)":{"details":"See {IERC721-safeTransferFrom}."}}},"source":"pragma solidity ^0.6.0;\n\nimport \"@openzeppelin/contracts/token/ERC721/ERC721.sol\";\nimport \"@openzeppelin/contracts/utils/Counters.sol\";\n\ncontract TruffleBadge is ERC721 {\n    using Counters for Counters.Counter;\n    Counters.Counter private _badgeIds;\n\n    constructor() ERC721(\"TruffleBadge\", \"TRFL\") public {\n    }\n    \n    /// @notice Ability to add award a badge (via _mint) to a webinar attendee via their EOA \n    /// @dev What's with that hardcoded id tho?\n    /// @param attendee Attendee account address to whom the badge is to be awarded\n    /// @param attendenceBadgeURI Uri to the badge metadata (https://ipfs.infura-ipfs.io/ipfs/QmP6AFJbppxmebAgsQJ6mNeBKe22VZGhMzBsSU143XfmiB/meta1.json)\n    /// @return Autoincremented badge identifier via the counter utility\n    function awardBadge(address attendee, string memory attendenceBadgeURI)\n        public\n        returns (uint256)\n    {\n        // Mike's build\n        _badgeIds.increment();\n\n        uint256 newBadgeId = _badgeIds.current();\n        _mint(attendee, newBadgeId);\n        _setTokenURI(newBadgeId, attendenceBadgeURI);\n\n        return newBadgeId;\n    }\n\n    function awardBadgeOrig()\n        public\n        returns (uint256)\n    {\n\n\n        return 100;\n    }\n}","userdoc":{"methods":{"awardBadge(address,string)":{"notice":"Ability to add award a badge (via _mint) to a webinar attendee via their EOA "}}},"bytecode":"0x60806040523480156200001157600080fd5b506040518060400160405280600c81526020017f54727566666c65426164676500000000000000000000000000000000000000008152506040518060400160405280600481526020017f5452464c00000000000000000000000000000000000000000000000000000000815250620000966301ffc9a760e01b6200011860201b60201c565b8160069080519060200190620000ae92919062000221565b508060079080519060200190620000c792919062000221565b50620000e06380ac58cd60e01b6200011860201b60201c565b620000f8635b5e139f60e01b6200011860201b60201c565b6200011063780e9d6360e01b6200011860201b60201c565b5050620002d0565b63ffffffff60e01b817bffffffffffffffffffffffffffffffffffffffffffffffffffffffff19161415620001b5576040517f08c379a000000000000000000000000000000000000000000000000000000000815260040180806020018281038252601c8152602001807f4552433136353a20696e76616c696420696e746572666163652069640000000081525060200191505060405180910390fd5b6001600080837bffffffffffffffffffffffffffffffffffffffffffffffffffffffff19167bffffffffffffffffffffffffffffffffffffffffffffffffffffffff1916815260200190815260200160002060006101000a81548160ff02191690831515021790555050565b828054600181600116156101000203166002900490600052602060002090601f016020900481019282601f106200026457805160ff191683800117855562000295565b8280016001018555821562000295579182015b828111156200029457825182559160200191906001019062000277565b5b509050620002a49190620002a8565b5090565b620002cd91905b80821115620002c9576000816000905550600101620002af565b5090565b90565b612c5e80620002e06000396000f3fe608060405234801561001057600080fd5b50600436106101215760003560e01c80636352211e116100ad57806395d89b411161007157806395d89b41146106be578063a22cb46514610741578063b88d4fde14610791578063c87b56dd14610896578063e985e9c51461093d57610121565b80636352211e146104685780636bc745db146104d65780636c0360eb146104f457806370a0823114610577578063833c5329146105cf57610121565b806318160ddd116100f457806318160ddd146102ca57806323b872dd146102e85780632f745c591461035657806342842e0e146103b85780634f6ccce71461042657610121565b806301ffc9a71461012657806306fdde031461018b578063081812fc1461020e578063095ea7b31461027c575b600080fd5b6101716004803603602081101561013c57600080fd5b8101908080357bffffffffffffffffffffffffffffffffffffffffffffffffffffffff191690602001909291905050506109b9565b604051808215151515815260200191505060405180910390f35b610193610a20565b6040518080602001828103825283818151815260200191508051906020019080838360005b838110156101d35780820151818401526020810190506101b8565b50505050905090810190601f1680156102005780820380516001836020036101000a031916815260200191505b509250505060405180910390f35b61023a6004803603602081101561022457600080fd5b8101908080359060200190929190505050610ac2565b604051808273ffffffffffffffffffffffffffffffffffffffff1673ffffffffffffffffffffffffffffffffffffffff16815260200191505060405180910390f35b6102c86004803603604081101561029257600080fd5b81019080803573ffffffffffffffffffffffffffffffffffffffff16906020019092919080359060200190929190505050610b5d565b005b6102d2610ca1565b6040518082815260200191505060405180910390f35b610354600480360360608110156102fe57600080fd5b81019080803573ffffffffffffffffffffffffffffffffffffffff169060200190929190803573ffffffffffffffffffffffffffffffffffffffff16906020019092919080359060200190929190505050610cb2565b005b6103a26004803603604081101561036c57600080fd5b81019080803573ffffffffffffffffffffffffffffffffffffffff16906020019092919080359060200190929190505050610d28565b6040518082815260200191505060405180910390f35b610424600480360360608110156103ce57600080fd5b81019080803573ffffffffffffffffffffffffffffffffffffffff169060200190929190803573ffffffffffffffffffffffffffffffffffffffff16906020019092919080359060200190929190505050610d83565b005b6104526004803603602081101561043c57600080fd5b8101908080359060200190929190505050610da3565b6040518082815260200191505060405180910390f35b6104946004803603602081101561047e57600080fd5b8101908080359060200190929190505050610dc6565b604051808273ffffffffffffffffffffffffffffffffffffffff1673ffffffffffffffffffffffffffffffffffffffff16815260200191505060405180910390f35b6104de610dfd565b6040518082815260200191505060405180910390f35b6104fc610e06565b6040518080602001828103825283818151815260200191508051906020019080838360005b8381101561053c578082015181840152602081019050610521565b50505050905090810190601f1680156105695780820380516001836020036101000a031916815260200191505b509250505060405180910390f35b6105b96004803603602081101561058d57600080fd5b81019080803573ffffffffffffffffffffffffffffffffffffffff169060200190929190505050610ea8565b6040518082815260200191505060405180910390f35b6106a8600480360360408110156105e557600080fd5b81019080803573ffffffffffffffffffffffffffffffffffffffff1690602001909291908035906020019064010000000081111561062257600080fd5b82018360208201111561063457600080fd5b8035906020019184600183028401116401000000008311171561065657600080fd5b91908080601f016020809104026020016040519081016040528093929190818152602001838380828437600081840152601f19601f820116905080830192505050505050509192919290505050610f7d565b6040518082815260200191505060405180910390f35b6106c6610fb5565b6040518080602001828103825283818151815260200191508051906020019080838360005b838110156107065780820151818401526020810190506106eb565b50505050905090810190601f1680156107335780820380516001836020036101000a031916815260200191505b509250505060405180910390f35b61078f6004803603604081101561075757600080fd5b81019080803573ffffffffffffffffffffffffffffffffffffffff169060200190929190803515159060200190929190505050611057565b005b610894600480360360808110156107a757600080fd5b81019080803573ffffffffffffffffffffffffffffffffffffffff169060200190929190803573ffffffffffffffffffffffffffffffffffffffff169060200190929190803590602001909291908035906020019064010000000081111561080e57600080fd5b82018360208201111561082057600080fd5b8035906020019184600183028401116401000000008311171561084257600080fd5b91908080601f016020809104026020016040519081016040528093929190818152602001838380828437600081840152601f19601f82011690508083019250505050505050919291929050505061120f565b005b6108c2600480360360208110156108ac57600080fd5b8101908080359060200190929190505050611287565b6040518080602001828103825283818151815260200191508051906020019080838360005b838110156109025780820151818401526020810190506108e7565b50505050905090810190601f16801561092f5780820380516001836020036101000a031916815260200191505b509250505060405180910390f35b61099f6004803603604081101561095357600080fd5b81019080803573ffffffffffffffffffffffffffffffffffffffff169060200190929190803573ffffffffffffffffffffffffffffffffffffffff169060200190929190505050611570565b604051808215151515815260200191505060405180910390f35b6000806000837bffffffffffffffffffffffffffffffffffffffffffffffffffffffff19167bffffffffffffffffffffffffffffffffffffffffffffffffffffffff1916815260200190815260200160002060009054906101000a900460ff169050919050565b606060068054600181600116156101000203166002900480601f016020809104026020016040519081016040528092919081815260200182805460018160011615610100020316600290048015610ab85780601f10610a8d57610100808354040283529160200191610ab8565b820191906000526020600020905b815481529060010190602001808311610a9b57829003601f168201915b5050505050905090565b6000610acd82611604565b610b22576040517f08c379a000000000000000000000000000000000000000000000000000000000815260040180806020018281038252602c815260200180612b27602c913960400191505060405180910390fd5b6004600083815260200190815260200160002060009054906101000a900473ffffffffffffffffffffffffffffffffffffffff169050919050565b6000610b6882610dc6565b90508073ffffffffffffffffffffffffffffffffffffffff168373ffffffffffffffffffffffffffffffffffffffff161415610bef576040517f08c379a0000000000000000000000000000000000000000000000000000000008152600401808060200182810382526021815260200180612bd76021913960400191505060405180910390fd5b8073ffffffffffffffffffffffffffffffffffffffff16610c0e611621565b73ffffffffffffffffffffffffffffffffffffffff161480610c3d5750610c3c81610c37611621565b611570565b5b610c92576040517f08c379a0000000000000000000000000000000000000000000000000000000008152600401808060200182810382526038815260200180612a7a6038913960400191505060405180910390fd5b610c9c8383611629565b505050565b6000610cad60026116e2565b905090565b610cc3610cbd611621565b826116f7565b610d18576040517f08c379a0000000000000000000000000000000000000000000000000000000008152600401808060200182810382526031815260200180612bf86031913960400191505060405180910390fd5b610d238383836117eb565b505050565b6000610d7b82600160008673ffffffffffffffffffffffffffffffffffffffff1673ffffffffffffffffffffffffffffffffffffffff168152602001908152602001600020611a2e90919063ffffffff16565b905092915050565b610d9e8383836040518060200160405280600081525061120f565b505050565b600080610dba836002611a4890919063ffffffff16565b50905080915050919050565b6000610df682604051806060016040528060298152602001612adc602991396002611a779092919063ffffffff16565b9050919050565b60006064905090565b606060098054600181600116156101000203166002900480601f016020809104026020016040519081016040528092919081815260200182805460018160011615610100020316600290048015610e9e5780601f10610e7357610100808354040283529160200191610e9e565b820191906000526020600020905b815481529060010190602001808311610e8157829003601f168201915b5050505050905090565b60008073ffffffffffffffffffffffffffffffffffffffff168273ffffffffffffffffffffffffffffffffffffffff161415610f2f576040517f08c379a000000000000000000000000000000000000000000000000000000000815260040180806020018281038252602a815260200180612ab2602a913960400191505060405180910390fd5b610f76600160008473ffffffffffffffffffffffffffffffffffffffff1673ffffffffffffffffffffffffffffffffffffffff168152602001908152602001600020611a96565b9050919050565b6000610f89600a611aab565b6000610f95600a611ac1565b9050610fa18482611acf565b610fab8184611cc3565b8091505092915050565b606060078054600181600116156101000203166002900480601f01602080910402602001604051908101604052809291908181526020018280546001816001161561010002031660029004801561104d5780601f106110225761010080835404028352916020019161104d565b820191906000526020600020905b81548152906001019060200180831161103057829003601f168201915b5050505050905090565b61105f611621565b73ffffffffffffffffffffffffffffffffffffffff168273ffffffffffffffffffffffffffffffffffffffff161415611100576040517f08c379a00000000000000000000000000000000000000000000000000000000081526004018080602001828103825260198152602001807f4552433732313a20617070726f766520746f2063616c6c65720000000000000081525060200191505060405180910390fd5b806005600061110d611621565b73ffffffffffffffffffffffffffffffffffffffff1673ffffffffffffffffffffffffffffffffffffffff16815260200190815260200160002060008473ffffffffffffffffffffffffffffffffffffffff1673ffffffffffffffffffffffffffffffffffffffff16815260200190815260200160002060006101000a81548160ff0219169083151502179055508173ffffffffffffffffffffffffffffffffffffffff166111ba611621565b73ffffffffffffffffffffffffffffffffffffffff167f17307eab39ab6107e8899845ad3d59bd9653f200f220920489ca2b5937696c3183604051808215151515815260200191505060405180910390a35050565b61122061121a611621565b836116f7565b611275576040517f08c379a0000000000000000000000000000000000000000000000000000000008152600401808060200182810382526031815260200180612bf86031913960400191505060405180910390fd5b61128184848484611d4d565b50505050565b606061129282611604565b6112e7576040517f08c379a000000000000000000000000000000000000000000000000000000000815260040180806020018281038252602f815260200180612ba8602f913960400191505060405180910390fd5b6060600860008481526020019081526020016000208054600181600116156101000203166002900480601f0160208091040260200160405190810160405280929190818152602001828054600181600116156101000203166002900480156113905780601f1061136557610100808354040283529160200191611390565b820191906000526020600020905b81548152906001019060200180831161137357829003601f168201915b505050505090506000600980546001816001161561010002031660029004905014156113bf578091505061156b565b60008151111561149857600981604051602001808380546001816001161561010002031660029004801561142a5780601f1061140857610100808354040283529182019161142a565b820191906000526020600020905b815481529060010190602001808311611416575b505082805190602001908083835b6020831061145b5780518252602082019150602081019050602083039250611438565b6001836020036101000a0380198251168184511680821785525050505050509050019250505060405160208183030381529060405291505061156b565b60096114a384611dbf565b60405160200180838054600181600116156101000203166002900480156115015780601f106114df576101008083540402835291820191611501565b820191906000526020600020905b8154815290600101906020018083116114ed575b505082805190602001908083835b60208310611532578051825260208201915060208101905060208303925061150f565b6001836020036101000a038019825116818451168082178552505050505050905001925050506040516020818303038152906040529150505b919050565b6000600560008473ffffffffffffffffffffffffffffffffffffffff1673ffffffffffffffffffffffffffffffffffffffff16815260200190815260200160002060008373ffffffffffffffffffffffffffffffffffffffff1673ffffffffffffffffffffffffffffffffffffffff16815260200190815260200160002060009054906101000a900460ff16905092915050565b600061161a826002611eef90919063ffffffff16565b9050919050565b600033905090565b816004600083815260200190815260200160002060006101000a81548173ffffffffffffffffffffffffffffffffffffffff021916908373ffffffffffffffffffffffffffffffffffffffff160217905550808273ffffffffffffffffffffffffffffffffffffffff1661169c83610dc6565b73ffffffffffffffffffffffffffffffffffffffff167f8c5be1e5ebec7d5bd14f71427d1e84f3dd0314c0f7b2291e5b200ac8c7c3b92560405160405180910390a45050565b60006116f082600001611f09565b9050919050565b600061170282611604565b611757576040517f08c379a000000000000000000000000000000000000000000000000000000000815260040180806020018281038252602c815260200180612a4e602c913960400191505060405180910390fd5b600061176283610dc6565b90508073ffffffffffffffffffffffffffffffffffffffff168473ffffffffffffffffffffffffffffffffffffffff1614806117d157508373ffffffffffffffffffffffffffffffffffffffff166117b984610ac2565b73ffffffffffffffffffffffffffffffffffffffff16145b806117e257506117e18185611570565b5b91505092915050565b8273ffffffffffffffffffffffffffffffffffffffff1661180b82610dc6565b73ffffffffffffffffffffffffffffffffffffffff1614611877576040517f08c379a0000000000000000000000000000000000000000000000000000000008152600401808060200182810382526029815260200180612b7f6029913960400191505060405180910390fd5b600073ffffffffffffffffffffffffffffffffffffffff168273ffffffffffffffffffffffffffffffffffffffff1614156118fd576040517f08c379a0000000000000000000000000000000000000000000000000000000008152600401808060200182810382526024815260200180612a046024913960400191505060405180910390fd5b611908838383611f1a565b611913600082611629565b61196481600160008673ffffffffffffffffffffffffffffffffffffffff1673ffffffffffffffffffffffffffffffffffffffff168152602001908152602001600020611f1f90919063ffffffff16565b506119b681600160008573ffffffffffffffffffffffffffffffffffffffff1673ffffffffffffffffffffffffffffffffffffffff168152602001908152602001600020611f3990919063ffffffff16565b506119cd81836002611f539092919063ffffffff16565b50808273ffffffffffffffffffffffffffffffffffffffff168473ffffffffffffffffffffffffffffffffffffffff167fddf252ad1be2c89b69c2b068fc378daa952ba7f163c4a11628f55a4df523b3ef60405160405180910390a4505050565b6000611a3d8360000183611f88565b60001c905092915050565b600080600080611a5b866000018661200b565b915091508160001c8160001c8090509350935050509250929050565b6000611a8a846000018460001b846120a4565b60001c90509392505050565b6000611aa48260000161219a565b9050919050565b6001816000016000828254019250508190555050565b600081600001549050919050565b600073ffffffffffffffffffffffffffffffffffffffff168273ffffffffffffffffffffffffffffffffffffffff161415611b72576040517f08c379a00000000000000000000000000000000000000000000000000000000081526004018080602001828103825260208152602001807f4552433732313a206d696e7420746f20746865207a65726f206164647265737381525060200191505060405180910390fd5b611b7b81611604565b15611bee576040517f08c379a000000000000000000000000000000000000000000000000000000000815260040180806020018281038252601c8152602001807f4552433732313a20746f6b656e20616c7265616479206d696e7465640000000081525060200191505060405180910390fd5b611bfa60008383611f1a565b611c4b81600160008573ffffffffffffffffffffffffffffffffffffffff1673ffffffffffffffffffffffffffffffffffffffff168152602001908152602001600020611f3990919063ffffffff16565b50611c6281836002611f539092919063ffffffff16565b50808273ffffffffffffffffffffffffffffffffffffffff16600073ffffffffffffffffffffffffffffffffffffffff167fddf252ad1be2c89b69c2b068fc378daa952ba7f163c4a11628f55a4df523b3ef60405160405180910390a45050565b611ccc82611604565b611d21576040517f08c379a000000000000000000000000000000000000000000000000000000000815260040180806020018281038252602c815260200180612b53602c913960400191505060405180910390fd5b80600860008481526020019081526020016000209080519060200190611d4892919061290a565b505050565b611d588484846117eb565b611d64848484846121ab565b611db9576040517f08c379a00000000000000000000000000000000000000000000000000000000081526004018080602001828103825260328152602001806129d26032913960400191505060405180910390fd5b50505050565b60606000821415611e07576040518060400160405280600181526020017f30000000000000000000000000000000000000000000000000000000000000008152509050611eea565b600082905060005b60008214611e31578080600101915050600a8281611e2957fe5b049150611e0f565b6060816040519080825280601f01601f191660200182016040528015611e665781602001600182028038833980820191505090505b50905060006001830390508593505b60008414611ee257600a8481611e8757fe5b0660300160f81b82828060019003935081518110611ea157fe5b60200101907effffffffffffffffffffffffffffffffffffffffffffffffffffffffffffff1916908160001a905350600a8481611eda57fe5b049350611e75565b819450505050505b919050565b6000611f01836000018360001b6123f0565b905092915050565b600081600001805490509050919050565b505050565b6000611f31836000018360001b612413565b905092915050565b6000611f4b836000018360001b6124fb565b905092915050565b6000611f7f846000018460001b8473ffffffffffffffffffffffffffffffffffffffff1660001b61256b565b90509392505050565b600081836000018054905011611fe9576040517f08c379a00000000000000000000000000000000000000000000000000000000081526004018080602001828103825260228152602001806129b06022913960400191505060405180910390fd5b826000018281548110611ff857fe5b9060005260206000200154905092915050565b6000808284600001805490501161206d576040517f08c379a0000000000000000000000000000000000000000000000000000000008152600401808060200182810382526022815260200180612b056022913960400191505060405180910390fd5b600084600001848154811061207e57fe5b906000526020600020906002020190508060000154816001015492509250509250929050565b6000808460010160008581526020019081526020016000205490506000811415839061216b576040517f08c379a00000000000000000000000000000000000000000000000000000000081526004018080602001828103825283818151815260200191508051906020019080838360005b83811015612130578082015181840152602081019050612115565b50505050905090810190601f16801561215d5780820380516001836020036101000a031916815260200191505b509250505060405180910390fd5b5084600001600182038154811061217e57fe5b9060005260206000209060020201600101549150509392505050565b600081600001805490509050919050565b60006121cc8473ffffffffffffffffffffffffffffffffffffffff16612647565b6121d957600190506123e8565b606061236f63150b7a0260e01b6121ee611621565b888787604051602401808573ffffffffffffffffffffffffffffffffffffffff1673ffffffffffffffffffffffffffffffffffffffff1681526020018473ffffffffffffffffffffffffffffffffffffffff1673ffffffffffffffffffffffffffffffffffffffff16815260200183815260200180602001828103825283818151815260200191508051906020019080838360005b8381101561229e578082015181840152602081019050612283565b50505050905090810190601f1680156122cb5780820380516001836020036101000a031916815260200191505b5095505050505050604051602081830303815290604052907bffffffffffffffffffffffffffffffffffffffffffffffffffffffff19166020820180517bffffffffffffffffffffffffffffffffffffffffffffffffffffffff83818316178352505050506040518060600160405280603281526020016129d2603291398773ffffffffffffffffffffffffffffffffffffffff1661265a9092919063ffffffff16565b9050600081806020019051602081101561238857600080fd5b8101908080519060200190929190505050905063150b7a0260e01b7bffffffffffffffffffffffffffffffffffffffffffffffffffffffff1916817bffffffffffffffffffffffffffffffffffffffffffffffffffffffff191614925050505b949350505050565b600080836001016000848152602001908152602001600020541415905092915050565b600080836001016000848152602001908152602001600020549050600081146124ef576000600182039050600060018660000180549050039050600086600001828154811061245e57fe5b906000526020600020015490508087600001848154811061247b57fe5b90600052602060002001819055506001830187600101600083815260200190815260200160002081905550866000018054806124b357fe5b600190038181906000526020600020016000905590558660010160008781526020019081526020016000206000905560019450505050506124f5565b60009150505b92915050565b60006125078383612672565b612560578260000182908060018154018082558091505060019003906000526020600020016000909190919091505582600001805490508360010160008481526020019081526020016000208190555060019050612565565b600090505b92915050565b600080846001016000858152602001908152602001600020549050600081141561261257846000016040518060400160405280868152602001858152509080600181540180825580915050600190039060005260206000209060020201600090919091909150600082015181600001556020820151816001015550508460000180549050856001016000868152602001908152602001600020819055506001915050612640565b8285600001600183038154811061262557fe5b90600052602060002090600202016001018190555060009150505b9392505050565b600080823b905060008111915050919050565b60606126698484600085612695565b90509392505050565b600080836001016000848152602001908152602001600020541415905092915050565b6060824710156126f0576040517f08c379a0000000000000000000000000000000000000000000000000000000008152600401808060200182810382526026815260200180612a286026913960400191505060405180910390fd5b6126f985612647565b61276b576040517f08c379a000000000000000000000000000000000000000000000000000000000815260040180806020018281038252601d8152602001807f416464726573733a2063616c6c20746f206e6f6e2d636f6e747261637400000081525060200191505060405180910390fd5b600060608673ffffffffffffffffffffffffffffffffffffffff1685876040518082805190602001908083835b602083106127bb5780518252602082019150602081019050602083039250612798565b6001836020036101000a03801982511681845116808217855250505050505090500191505060006040518083038185875af1925050503d806000811461281d576040519150601f19603f3d011682016040523d82523d6000602084013e612822565b606091505b509150915061283282828661283e565b92505050949350505050565b6060831561284e57829050612903565b6000835111156128615782518084602001fd5b816040517f08c379a00000000000000000000000000000000000000000000000000000000081526004018080602001828103825283818151815260200191508051906020019080838360005b838110156128c85780820151818401526020810190506128ad565b50505050905090810190601f1680156128f55780820380516001836020036101000a031916815260200191505b509250505060405180910390fd5b9392505050565b828054600181600116156101000203166002900490600052602060002090601f016020900481019282601f1061294b57805160ff1916838001178555612979565b82800160010185558215612979579182015b8281111561297857825182559160200191906001019061295d565b5b509050612986919061298a565b5090565b6129ac91905b808211156129a8576000816000905550600101612990565b5090565b9056fe456e756d657261626c655365743a20696e646578206f7574206f6620626f756e64734552433732313a207472616e7366657220746f206e6f6e20455243373231526563656976657220696d706c656d656e7465724552433732313a207472616e7366657220746f20746865207a65726f2061646472657373416464726573733a20696e73756666696369656e742062616c616e636520666f722063616c6c4552433732313a206f70657261746f7220717565727920666f72206e6f6e6578697374656e7420746f6b656e4552433732313a20617070726f76652063616c6c6572206973206e6f74206f776e6572206e6f7220617070726f76656420666f7220616c6c4552433732313a2062616c616e636520717565727920666f7220746865207a65726f20616464726573734552433732313a206f776e657220717565727920666f72206e6f6e6578697374656e7420746f6b656e456e756d657261626c654d61703a20696e646578206f7574206f6620626f756e64734552433732313a20617070726f76656420717565727920666f72206e6f6e6578697374656e7420746f6b656e4552433732314d657461646174613a2055524920736574206f66206e6f6e6578697374656e7420746f6b656e4552433732313a207472616e73666572206f6620746f6b656e2074686174206973206e6f74206f776e4552433732314d657461646174613a2055524920717565727920666f72206e6f6e6578697374656e7420746f6b656e4552433732313a20617070726f76616c20746f2063757272656e74206f776e65724552433732313a207472616e736665722063616c6c6572206973206e6f74206f776e6572206e6f7220617070726f766564a2646970667358221220cd73afb39d053b2331a8f582ec78d9dea4a2280ddd7e28b3a620cbb2aaa5a97364736f6c63430006020033","compiler":{"name":"solc","version":"0.6.2+commit.bacdbe57.Emscripten.clang"},"updatedAt":"2021-01-09T18:25:32.668Z","sourcePath":"/home/builduser/teams_workingdir/repo/contracts/TruffleBadge.sol","networkType":"ethereum","contractName":"TruffleBadge","schemaVersion":"3.3.3"}